{
  "contractName": "ProxyFactory",
  "abi": [
    {
      "anonymous": false,
      "inputs": [
        {
          "indexed": false,
          "name": "proxy",
          "type": "address"
        }
      ],
      "name": "ProxyCreation",
      "type": "event"
    },
    {
      "constant": false,
      "inputs": [
        {
          "name": "masterCopy",
          "type": "address"
        },
        {
          "name": "data",
          "type": "bytes"
        }
      ],
      "name": "createProxy",
      "outputs": [
        {
          "name": "proxy",
          "type": "address"
        }
      ],
      "payable": false,
      "stateMutability": "nonpayable",
      "type": "function"
    },
    {
      "constant": true,
      "inputs": [],
      "name": "proxyRuntimeCode",
      "outputs": [
        {
          "name": "",
          "type": "bytes"
        }
      ],
      "payable": false,
      "stateMutability": "pure",
      "type": "function"
    },
    {
      "constant": true,
      "inputs": [],
      "name": "proxyCreationCode",
      "outputs": [
        {
          "name": "",
          "type": "bytes"
        }
      ],
      "payable": false,
      "stateMutability": "pure",
      "type": "function"
    },
    {
      "constant": false,
      "inputs": [
        {
          "name": "_mastercopy",
          "type": "address"
        },
        {
          "name": "initializer",
          "type": "bytes"
        },
        {
          "name": "nonce",
          "type": "uint256"
        }
      ],
      "name": "createProxyWithNonce",
      "outputs": [
        {
          "name": "proxy",
          "type": "address"
        }
      ],
      "payable": false,
      "stateMutability": "nonpayable",
      "type": "function"
    }
  ],
  "bytecode": "0x608060405234801561001057600080fd5b506108b3806100206000396000f3fe608060405234801561001057600080fd5b506004361061004c5760003560e01c80631688f0b91461005157806353e5d9351461017657806361b69abd146101f9578063addacc0f14610314575b600080fd5b6101346004803603606081101561006757600080fd5b81019080803573ffffffffffffffffffffffffffffffffffffffff169060200190929190803590602001906401000000008111156100a457600080fd5b8201836020820111156100b657600080fd5b803590602001918460018302840111640100000000831117156100d857600080fd5b91908080601f016020809104026020016040519081016040528093929190818152602001838380828437600081840152601f19601f82011690508083019250505050505050919291929080359060200190929190505050610397565b604051808273ffffffffffffffffffffffffffffffffffffffff1673ffffffffffffffffffffffffffffffffffffffff16815260200191505060405180910390f35b61017e61051b565b6040518080602001828103825283818151815260200191508051906020019080838360005b838110156101be5780820151818401526020810190506101a3565b50505050905090810190601f1680156101eb5780820380516001836020036101000a031916815260200191505b509250505060405180910390f35b6102d26004803603604081101561020f57600080fd5b81019080803573ffffffffffffffffffffffffffffffffffffffff1690602001909291908035906020019064010000000081111561024c57600080fd5b82018360208201111561025e57600080fd5b8035906020019184600183028401116401000000008311171561028057600080fd5b91908080601f016020809104026020016040519081016040528093929190818152602001838380828437600081840152601f19601f82011690508083019250505050505050919291929050505061053f565b604051808273ffffffffffffffffffffffffffffffffffffffff1673ffffffffffffffffffffffffffffffffffffffff16815260200191505060405180910390f35b61031c610632565b6040518080602001828103825283818151815260200191508051906020019080838360005b8381101561035c578082015181840152602081019050610341565b50505050905090810190601f1680156103895780820380516001836020036101000a031916815260200191505b509250505060405180910390f35b60008083805190602001208360405160200180838152602001828152602001925050506040516020818303038152906040528051906020012090506060604051806020016103e490610656565b602082018103825280604052508673ffffffffffffffffffffffffffffffffffffffff166040516020018083805190602001908083835b602083101515610440578051825260208201915060208101905060208303925061041b565b6001836020036101000a038019825116818451168082178552505050505050905001828152602001925050506040516020818303038152906040529050818151826020016000f592506000855111156104af5760008060008751602089016000885af114156104ae57600080fd5b5b7fa38789425dbeee0239e16ff2d2567e31720127fbc6430758c1a4efc6aef29f8083604051808273ffffffffffffffffffffffffffffffffffffffff1673ffffffffffffffffffffffffffffffffffffffff16815260200191505060405180910390a150509392505050565b60606040518060200161052d90610656565b60208201810382528060405250905090565b60008260405161054e90610656565b808273ffffffffffffffffffffffffffffffffffffffff1673ffffffffffffffffffffffffffffffffffffffff168152602001915050604051809103906000f0801580156105a0573d6000803e3d6000fd5b5090506000825111156105c95760008060008451602086016000865af114156105c857600080fd5b5b7fa38789425dbeee0239e16ff2d2567e31720127fbc6430758c1a4efc6aef29f8081604051808273ffffffffffffffffffffffffffffffffffffffff1673ffffffffffffffffffffffffffffffffffffffff16815260200191505060405180910390a192915050565b60606040518060200161064490610663565b60208201810382528060405250905090565b6101aa8061067083390190565b606e8061081a8339019056fe608060405234801561001057600080fd5b506040516020806101aa8339810180604052602081101561003057600080fd5b8101908080519060200190929190505050600073ffffffffffffffffffffffffffffffffffffffff168173ffffffffffffffffffffffffffffffffffffffff16141515156100c9576040517f08c379a00000000000000000000000000000000000000000000000000000000081526004018080602001828103825260248152602001806101866024913960400191505060405180910390fd5b806000806101000a81548173ffffffffffffffffffffffffffffffffffffffff021916908373ffffffffffffffffffffffffffffffffffffffff16021790555050606e806101186000396000f3fe608060405273ffffffffffffffffffffffffffffffffffffffff600054163660008037600080366000845af43d6000803e6000811415603d573d6000fd5b3d6000f3fea165627a7a72305820fb5a6f727010799f33fdcf5590764db867b968b3e64528d5250c6935457674d00029496e76616c6964206d617374657220636f707920616464726573732070726f7669646564608060405273ffffffffffffffffffffffffffffffffffffffff600054163660008037600080366000845af43d6000803e6000811415603d573d6000fd5b3d6000f3fea165627a7a72305820fb5a6f727010799f33fdcf5590764db867b968b3e64528d5250c6935457674d00029a165627a7a7230582017d1dc7c77cef71cd086075cd7f8611a9d64cac15d3976e63f8ae1e5cc43bd720029",
  "source": "pragma solidity ^0.5.0;\nimport \"./Proxy.sol\";\n\n\n/// @title Proxy Factory - Allows to create new proxy contact and execute a message call to the new proxy within one transaction.\n/// @author Stefan George - <stefan@gnosis.pm>\ncontract ProxyFactory {\n\n    event ProxyCreation(Proxy proxy);\n\n    /// @dev Allows to create new proxy contact and execute a message call to the new proxy within one transaction.\n    /// @param masterCopy Address of master copy.\n    /// @param data Payload for message call sent to new proxy contract.\n    function createProxy(address masterCopy, bytes memory data)\n        public\n        returns (Proxy proxy)\n    {\n        proxy = new Proxy(masterCopy);\n        if (data.length > 0)\n            // solium-disable-next-line security/no-inline-assembly\n            assembly {\n                if eq(call(gas, proxy, 0, add(data, 0x20), mload(data), 0, 0), 0) { revert(0, 0) }\n            }\n        emit ProxyCreation(proxy);\n    }\n\n    /// @dev Allows to retrieve the runtime code of a deployed Proxy. This can be used to check that the expected Proxy was deployed.\n    function proxyRuntimeCode() public pure returns (bytes memory) {\n        return type(Proxy).runtimeCode;\n    }\n\n    /// @dev Allows to retrieve the creation code used for the Proxy deployment. With this it is easily possible to calculate predicted address.\n    function proxyCreationCode() public pure returns (bytes memory) {\n        return type(Proxy).creationCode;\n    }\n\n    /// @dev Allows to create new proxy contact and execute a message call to the new proxy within one transaction.\n    /// @param _mastercopy Address of master copy.\n    /// @param initializer Payload for message call sent to new proxy contract.\n    /// @param nonce Nonce that will be used to generate the salt to calculate the address of the new proxy contract.\n    function createProxyWithNonce(address _mastercopy, bytes memory initializer, uint256 nonce)\n        public\n        returns (Proxy proxy)\n    {\n        // If the initializer changes the proxy address should change too. Hashing the initializer data is cheaper than just concatinating it\n        bytes32 salt = keccak256(abi.encodePacked(keccak256(initializer), nonce));\n        bytes memory deploymentData = abi.encodePacked(type(Proxy).creationCode, uint256(_mastercopy));\n        // solium-disable-next-line security/no-inline-assembly\n        assembly {\n            proxy := create2(0x0, add(0x20, deploymentData), mload(deploymentData), salt)\n        }\n        if (initializer.length > 0)\n            // solium-disable-next-line security/no-inline-assembly\n            assembly {\n                if eq(call(gas, proxy, 0, add(initializer, 0x20), mload(initializer), 0, 0), 0) { revert(0,0) }\n            }\n        emit ProxyCreation(proxy);\n    }\n}\n",
  "sourcePath": "/home/uxio/gnosis/dev/safe-contracts/contracts/proxies/ProxyFactory.sol",
  "compiler": {
    "name": "solc",
    "version": "0.5.3+commit.10d17f24.Emscripten.clang"
  },
  "schemaVersion": "2.0.2",
  "updatedAt": "2019-02-28T10:44:01.255Z"
}