{
  "contractName": "ProxyFactory2",
  "abi": [
    {
      "anonymous": false,
      "inputs": [
        {
          "indexed": false,
          "name": "proxy",
          "type": "address"
        }
      ],
      "name": "ProxyCreated",
      "type": "event"
    },
    {
      "constant": true,
      "inputs": [],
      "name": "proxyCreationCode",
      "outputs": [
        {
          "name": "",
          "type": "bytes"
        }
      ],
      "payable": false,
      "stateMutability": "view",
      "type": "function"
    },
    {
      "constant": true,
      "inputs": [],
      "name": "proxyRuntimeCode",
      "outputs": [
        {
          "name": "",
          "type": "bytes"
        }
      ],
      "payable": false,
      "stateMutability": "view",
      "type": "function"
    },
    {
      "constant": false,
      "inputs": [
        {
          "name": "_mastercopy",
          "type": "address"
        },
        {
          "name": "initializer",
          "type": "bytes"
        },
        {
          "name": "paymentToken",
          "type": "address"
        },
        {
          "name": "payment",
          "type": "uint256"
        },
        {
          "name": "nonce",
          "type": "uint256"
        }
      ],
      "name": "createProxy",
      "outputs": [
        {
          "name": "proxy",
          "type": "address"
        }
      ],
      "payable": false,
      "stateMutability": "nonpayable",
      "type": "function"
    }
  ],
  "bytecode": "0x608060405234801561001057600080fd5b50610b0c806100206000396000f3fe608060405234801561001057600080fd5b50600436106100415760003560e01c806353e5d93514610046578063addacc0f146100c9578063fb4f25301461014c575b600080fd5b61004e61029b565b6040518080602001828103825283818151815260200191508051906020019080838360005b8381101561008e578082015181840152602081019050610073565b50505050905090810190601f1680156100bb5780820380516001836020036101000a031916815260200191505b509250505060405180910390f35b6100d16102bf565b6040518080602001828103825283818151815260200191508051906020019080838360005b838110156101115780820151818401526020810190506100f6565b50505050905090810190601f16801561013e5780820380516001836020036101000a031916815260200191505b509250505060405180910390f35b610259600480360360a081101561016257600080fd5b81019080803573ffffffffffffffffffffffffffffffffffffffff1690602001909291908035906020019064010000000081111561019f57600080fd5b8201836020820111156101b157600080fd5b803590602001918460018302840111640100000000831117156101d357600080fd5b91908080601f016020809104026020016040519081016040528093929190818152602001838380828437600081840152601f19601f820116905080830192505050505050509192919290803573ffffffffffffffffffffffffffffffffffffffff16906020019092919080359060200190929190803590602001909291905050506102e3565b604051808273ffffffffffffffffffffffffffffffffffffffff1673ffffffffffffffffffffffffffffffffffffffff16815260200191505060405180910390f35b6060604051806020016102ad906104d4565b60208201810382528060405250905090565b6060604051806020016102d1906104e1565b60208201810382528060405250905090565b60008085836040516020018083805190602001908083835b60208310151561032057805182526020820191506020810190506020830392506102fb565b6001836020036101000a03801982511681845116808217855250505050505090500182815260200192505050604051602081830303815290604052805190602001209050606060405180602001610376906104d4565b602082018103825280604052508873ffffffffffffffffffffffffffffffffffffffff168773ffffffffffffffffffffffffffffffffffffffff16876040516020018085805190602001908083835b6020831015156103ea57805182526020820191506020810190506020830392506103c5565b6001836020036101000a0380198251168184511680821785525050505050509050018481526020018381526020018281526020019450505050506040516020818303038152906040529050818151826020016000f59250600087511115610467576000806000895160208b016000885af1141561046657600080fd5b5b7efffc2da0b561cae30d9826d37709e9421c4725faebc226cbbb7ef5fc5e734983604051808273ffffffffffffffffffffffffffffffffffffffff1673ffffffffffffffffffffffffffffffffffffffff16815260200191505060405180910390a1505095945050505050565b6104f4806104ee83390190565b60ff806109e28339019056fe608060405234801561001057600080fd5b506040516060806104f48339810180604052606081101561003057600080fd5b81019080805190602001909291908051906020019092919080519060200190929190505050600073ffffffffffffffffffffffffffffffffffffffff168373ffffffffffffffffffffffffffffffffffffffff16141515156100dd576040517f08c379a00000000000000000000000000000000000000000000000000000000081526004018080602001828103825260248152602001806104d06024913960400191505060405180910390fd5b826000806101000a81548173ffffffffffffffffffffffffffffffffffffffff021916908373ffffffffffffffffffffffffffffffffffffffff160217905550600081111561025657600073ffffffffffffffffffffffffffffffffffffffff168273ffffffffffffffffffffffffffffffffffffffff1614156101ec573273ffffffffffffffffffffffffffffffffffffffff166108fc829081150290604051600060405180830381858888f1935050505015156101e7576040517f08c379a00000000000000000000000000000000000000000000000000000000081526004018080602001828103825260268152602001806104846026913960400191505060405180910390fd5b610255565b6101fd82328361025e60201b60201c565b1515610254576040517f08c379a00000000000000000000000000000000000000000000000000000000081526004018080602001828103825260268152602001806104aa6026913960400191505060405180910390fd5b5b5b505050610377565b600060608383604051602401808373ffffffffffffffffffffffffffffffffffffffff1673ffffffffffffffffffffffffffffffffffffffff168152602001828152602001925050506040516020818303038152906040527fa9059cbb000000000000000000000000000000000000000000000000000000007bffffffffffffffffffffffffffffffffffffffffffffffffffffffff19166020820180517bffffffffffffffffffffffffffffffffffffffffffffffffffffffff838183161783525050505090506000808251602084016000896127105a03f16040513d6000823e3d6000811461035a5760208114610362576000945061036c565b82945061036c565b8151158315171594505b505050509392505050565b60ff806103856000396000f3fe608060405260043610601c5760003560e01c8063c5ed9d2714605a575b73ffffffffffffffffffffffffffffffffffffffff600054163660008037600080366000845af43d6000803e60008114156055573d6000fd5b3d6000f35b348015606557600080fd5b50606c60ae565b604051808273ffffffffffffffffffffffffffffffffffffffff1673ffffffffffffffffffffffffffffffffffffffff16815260200191505060405180910390f35b6000809054906101000a900473ffffffffffffffffffffffffffffffffffffffff168156fea165627a7a72305820590c55cccb9b62878f5e32017ecd93038f7566b9b82bd9c5cab26aa7b21a89880029436f756c64206e6f74207061792073616665206372656174696f6e2077697468206574686572436f756c64206e6f74207061792073616665206372656174696f6e207769746820746f6b656e496e76616c6964206d617374657220636f707920616464726573732070726f7669646564608060405260043610601c5760003560e01c8063c5ed9d2714605a575b73ffffffffffffffffffffffffffffffffffffffff600054163660008037600080366000845af43d6000803e60008114156055573d6000fd5b3d6000f35b348015606557600080fd5b50606c60ae565b604051808273ffffffffffffffffffffffffffffffffffffffff1673ffffffffffffffffffffffffffffffffffffffff16815260200191505060405180910390f35b6000809054906101000a900473ffffffffffffffffffffffffffffffffffffffff168156fea165627a7a72305820590c55cccb9b62878f5e32017ecd93038f7566b9b82bd9c5cab26aa7b21a89880029a165627a7a723058208588270f9699c79ea498b4bb693f19fa97e5cfc31d74d5b3f062f0b708db135a0029",
  "source": "pragma solidity ^0.5.0;\ncontract Proxy2 {\n    address public mastercopy;\n    \n    constructor(address _mastercopy, address paymentToken, uint256 payment) public {\n        require(_mastercopy != address(0), \"Invalid master copy address provided\");\n        mastercopy = _mastercopy;\n        if (payment > 0) {\n            if (paymentToken == address(0)) {\n                 // solium-disable-next-line security/no-tx-origin\n                require(tx.origin.send(payment), \"Could not pay safe creation with ether\");\n            } else {\n                 // solium-disable-next-line security/no-tx-origin\n                require(transferToken(paymentToken, tx.origin, payment), \"Could not pay safe creation with token\");\n            }\n        } \n    }\n    \n    /// @dev Transfers a token and returns if it was a success\n    /// @param token Token that should be transferred\n    /// @param receiver Receiver to whom the token should be transferred\n    /// @param amount The amount of tokens that should be transferred\n    function transferToken (\n        address token, \n        address receiver,\n        uint256 amount\n    )\n        internal\n        returns (bool transferred)\n    {\n        bytes memory data = abi.encodeWithSignature(\"transfer(address,uint256)\", receiver, amount);\n        // solium-disable-next-line security/no-inline-assembly\n        assembly {\n            let success := call(sub(gas, 10000), token, 0, add(data, 0x20), mload(data), 0, 0)\n            let ptr := mload(0x40)\n            returndatacopy(ptr, 0, returndatasize)\n            switch returndatasize \n            case 0 { transferred := success }\n            case 0x20 { transferred := iszero(or(iszero(success), iszero(mload(ptr)))) }\n            default { transferred := 0 }\n        }\n    }\n\n    /// @dev Fallback function forwards all transactions and returns all received return data.\n    function ()\n        external\n        payable\n    {\n        // solium-disable-next-line security/no-inline-assembly\n        assembly {\n            let masterCopy := and(sload(0), 0xffffffffffffffffffffffffffffffffffffffff)\n            calldatacopy(0, 0, calldatasize())\n            let success := delegatecall(gas, masterCopy, 0, calldatasize(), 0, 0)\n            returndatacopy(0, 0, returndatasize())\n            if eq(success, 0) { revert(0, returndatasize()) }\n            return(0, returndatasize())\n        }\n    }\n}\n\n/// @title Proxy Factory - Allows to create new proxy contact and execute a message call to the new proxy within one transaction using create2\n/// @author Richard Meissner - <richard@gnosis.pm>\ncontract ProxyFactory2 {\n\n    event ProxyCreated(address proxy);\n\n    function proxyCreationCode() public view returns (bytes memory) {\n        return type(Proxy2).creationCode;\n    }\n\n    function proxyRuntimeCode() public view returns (bytes memory) {\n        return type(Proxy2).runtimeCode;\n    }\n\n    /// @dev Allows to create new proxy contact and execute a message call to the new proxy within one transaction.\n    /// @param _mastercopy Address of master copy.\n    /// @param initializer Payload for message call sent to new proxy contract.\n    function createProxy(address _mastercopy, bytes memory initializer, address paymentToken, uint256 payment, uint256 nonce)\n        public\n        returns (Proxy2 proxy)\n    {\n        bytes32 salt = keccak256(abi.encodePacked(initializer, nonce));\n        bytes memory deploymentData = abi.encodePacked(type(Proxy2).creationCode, uint256(_mastercopy), uint256(paymentToken), payment);\n        // solium-disable-next-line security/no-inline-assembly\n        assembly {\n            proxy := create2(0x0, add(0x20, deploymentData), mload(deploymentData), salt)\n        }\n        if (initializer.length > 0)\n            // solium-disable-next-line security/no-inline-assembly\n            assembly {\n                if eq(call(gas, proxy, 0, add(initializer, 0x20), mload(initializer), 0, 0), 0) { revert(0,0) }\n            }\n        emit ProxyCreated(address(proxy));\n    }\n}\n",
  "sourcePath": "/tmp/safe-contracts/contracts/proxies/ProxyFactory2.sol",
  "compiler": {
    "name": "solc",
    "version": "0.5.3+commit.10d17f24.Emscripten.clang"
  },
  "schemaVersion": "2.0.2",
  "updatedAt": "2019-02-08T15:20:25.932Z"
}