{
  "_format": "hh-sol-artifact-1",
  "contractName": "ERC1155",
  "sourceName": "contracts/token/ERC1155/ERC1155.sol",
  "abi": [
    {
      "inputs": [
        {
          "internalType": "string",
          "name": "uri_",
          "type": "string"
        }
      ],
      "stateMutability": "nonpayable",
      "type": "constructor"
    },
    {
      "anonymous": false,
      "inputs": [
        {
          "indexed": true,
          "internalType": "address",
          "name": "account",
          "type": "address"
        },
        {
          "indexed": true,
          "internalType": "address",
          "name": "operator",
          "type": "address"
        },
        {
          "indexed": false,
          "internalType": "bool",
          "name": "approved",
          "type": "bool"
        }
      ],
      "name": "ApprovalForAll",
      "type": "event"
    },
    {
      "anonymous": false,
      "inputs": [
        {
          "indexed": true,
          "internalType": "address",
          "name": "operator",
          "type": "address"
        },
        {
          "indexed": true,
          "internalType": "address",
          "name": "from",
          "type": "address"
        },
        {
          "indexed": true,
          "internalType": "address",
          "name": "to",
          "type": "address"
        },
        {
          "indexed": false,
          "internalType": "uint256[]",
          "name": "ids",
          "type": "uint256[]"
        },
        {
          "indexed": false,
          "internalType": "uint256[]",
          "name": "values",
          "type": "uint256[]"
        }
      ],
      "name": "TransferBatch",
      "type": "event"
    },
    {
      "anonymous": false,
      "inputs": [
        {
          "indexed": true,
          "internalType": "address",
          "name": "operator",
          "type": "address"
        },
        {
          "indexed": true,
          "internalType": "address",
          "name": "from",
          "type": "address"
        },
        {
          "indexed": true,
          "internalType": "address",
          "name": "to",
          "type": "address"
        },
        {
          "indexed": false,
          "internalType": "uint256",
          "name": "id",
          "type": "uint256"
        },
        {
          "indexed": false,
          "internalType": "uint256",
          "name": "value",
          "type": "uint256"
        }
      ],
      "name": "TransferSingle",
      "type": "event"
    },
    {
      "anonymous": false,
      "inputs": [
        {
          "indexed": false,
          "internalType": "string",
          "name": "value",
          "type": "string"
        },
        {
          "indexed": true,
          "internalType": "uint256",
          "name": "id",
          "type": "uint256"
        }
      ],
      "name": "URI",
      "type": "event"
    },
    {
      "inputs": [
        {
          "internalType": "address",
          "name": "account",
          "type": "address"
        },
        {
          "internalType": "uint256",
          "name": "id",
          "type": "uint256"
        }
      ],
      "name": "balanceOf",
      "outputs": [
        {
          "internalType": "uint256",
          "name": "",
          "type": "uint256"
        }
      ],
      "stateMutability": "view",
      "type": "function"
    },
    {
      "inputs": [
        {
          "internalType": "address[]",
          "name": "accounts",
          "type": "address[]"
        },
        {
          "internalType": "uint256[]",
          "name": "ids",
          "type": "uint256[]"
        }
      ],
      "name": "balanceOfBatch",
      "outputs": [
        {
          "internalType": "uint256[]",
          "name": "",
          "type": "uint256[]"
        }
      ],
      "stateMutability": "view",
      "type": "function"
    },
    {
      "inputs": [
        {
          "internalType": "address",
          "name": "account",
          "type": "address"
        },
        {
          "internalType": "address",
          "name": "operator",
          "type": "address"
        }
      ],
      "name": "isApprovedForAll",
      "outputs": [
        {
          "internalType": "bool",
          "name": "",
          "type": "bool"
        }
      ],
      "stateMutability": "view",
      "type": "function"
    },
    {
      "inputs": [
        {
          "internalType": "address",
          "name": "from",
          "type": "address"
        },
        {
          "internalType": "address",
          "name": "to",
          "type": "address"
        },
        {
          "internalType": "uint256[]",
          "name": "ids",
          "type": "uint256[]"
        },
        {
          "internalType": "uint256[]",
          "name": "amounts",
          "type": "uint256[]"
        },
        {
          "internalType": "bytes",
          "name": "data",
          "type": "bytes"
        }
      ],
      "name": "safeBatchTransferFrom",
      "outputs": [],
      "stateMutability": "nonpayable",
      "type": "function"
    },
    {
      "inputs": [
        {
          "internalType": "address",
          "name": "from",
          "type": "address"
        },
        {
          "internalType": "address",
          "name": "to",
          "type": "address"
        },
        {
          "internalType": "uint256",
          "name": "id",
          "type": "uint256"
        },
        {
          "internalType": "uint256",
          "name": "amount",
          "type": "uint256"
        },
        {
          "internalType": "bytes",
          "name": "data",
          "type": "bytes"
        }
      ],
      "name": "safeTransferFrom",
      "outputs": [],
      "stateMutability": "nonpayable",
      "type": "function"
    },
    {
      "inputs": [
        {
          "internalType": "address",
          "name": "operator",
          "type": "address"
        },
        {
          "internalType": "bool",
          "name": "approved",
          "type": "bool"
        }
      ],
      "name": "setApprovalForAll",
      "outputs": [],
      "stateMutability": "nonpayable",
      "type": "function"
    },
    {
      "inputs": [
        {
          "internalType": "bytes4",
          "name": "interfaceId",
          "type": "bytes4"
        }
      ],
      "name": "supportsInterface",
      "outputs": [
        {
          "internalType": "bool",
          "name": "",
          "type": "bool"
        }
      ],
      "stateMutability": "view",
      "type": "function"
    },
    {
      "inputs": [
        {
          "internalType": "uint256",
          "name": "",
          "type": "uint256"
        }
      ],
      "name": "uri",
      "outputs": [
        {
          "internalType": "string",
          "name": "",
          "type": "string"
        }
      ],
      "stateMutability": "view",
      "type": "function"
    }
  ],
  "bytecode": "0x60806040523480156200001157600080fd5b506040516200169c3803806200169c833981016040819052620000349162000105565b6200003f8162000046565b506200022e565b80516200005b9060029060208401906200005f565b5050565b8280546200006d90620001db565b90600052602060002090601f016020900481019282620000915760008555620000dc565b82601f10620000ac57805160ff1916838001178555620000dc565b82800160010185558215620000dc579182015b82811115620000dc578251825591602001919060010190620000bf565b50620000ea929150620000ee565b5090565b5b80821115620000ea5760008155600101620000ef565b6000602080838503121562000118578182fd5b82516001600160401b03808211156200012f578384fd5b818501915085601f83011262000143578384fd5b81518181111562000158576200015862000218565b604051601f8201601f19908116603f0116810190838211818310171562000183576200018362000218565b8160405282815288868487010111156200019b578687fd5b8693505b82841015620001be57848401860151818501870152928501926200019f565b82841115620001cf57868684830101525b98975050505050505050565b600181811c90821680620001f057607f821691505b602082108114156200021257634e487b7160e01b600052602260045260246000fd5b50919050565b634e487b7160e01b600052604160045260246000fd5b61145e806200023e6000396000f3fe608060405234801561001057600080fd5b50600436106100875760003560e01c80634e1273f41161005b5780634e1273f41461010a578063a22cb4651461012a578063e985e9c51461013d578063f242432a1461017957610087565b8062fdd58e1461008c57806301ffc9a7146100b25780630e89341c146100d55780632eb2c2d6146100f5575b600080fd5b61009f61009a366004610edd565b61018c565b6040519081526020015b60405180910390f35b6100c56100c0366004610fd1565b610223565b60405190151581526020016100a9565b6100e86100e3366004611010565b610277565b6040516100a99190611191565b610108610103366004610d9a565b61030b565b005b61011d610118366004610f06565b6103b4565b6040516100a99190611150565b610108610138366004610ea3565b610516565b6100c561014b366004610d68565b6001600160a01b03918216600090815260016020908152604080832093909416825291909152205460ff1690565b610108610187366004610e40565b61052c565b60006001600160a01b0383166101fd5760405162461bcd60e51b815260206004820152602b60248201527f455243313135353a2062616c616e636520717565727920666f7220746865207a60448201526a65726f206164647265737360a81b60648201526084015b60405180910390fd5b506000908152602081815260408083206001600160a01b03949094168352929052205490565b60006001600160e01b03198216636cdb3d1360e11b148061025457506001600160e01b031982166303a24d0760e21b145b8061026f57506301ffc9a760e01b6001600160e01b03198316145b90505b919050565b606060028054610286906112b7565b80601f01602080910402602001604051908101604052809291908181526020018280546102b2906112b7565b80156102ff5780601f106102d4576101008083540402835291602001916102ff565b820191906000526020600020905b8154815290600101906020018083116102e257829003601f168201915b50505050509050919050565b6103136105c5565b6001600160a01b0316856001600160a01b0316148061033957506103398561014b6105c5565b6103a05760405162461bcd60e51b815260206004820152603260248201527f455243313135353a207472616e736665722063616c6c6572206973206e6f74206044820152711bdddb995c881b9bdc88185c1c1c9bdd995960721b60648201526084016101f4565b6103ad85858585856105ca565b5050505050565b606081518351146104195760405162461bcd60e51b815260206004820152602960248201527f455243313135353a206163636f756e747320616e6420696473206c656e677468604482015268040dad2e6dac2e8c6d60bb1b60648201526084016101f4565b6000835167ffffffffffffffff81111561044357634e487b7160e01b600052604160045260246000fd5b60405190808252806020026020018201604052801561046c578160200160208202803683370190505b50905060005b845181101561050e576104d385828151811061049e57634e487b7160e01b600052603260045260246000fd5b60200260200101518583815181106104c657634e487b7160e01b600052603260045260246000fd5b602002602001015161018c565b8282815181106104f357634e487b7160e01b600052603260045260246000fd5b60209081029190910101526105078161131f565b9050610472565b509392505050565b6105286105216105c5565b83836107ce565b5050565b6105346105c5565b6001600160a01b0316856001600160a01b0316148061055a575061055a8561014b6105c5565b6105b85760405162461bcd60e51b815260206004820152602960248201527f455243313135353a2063616c6c6572206973206e6f74206f776e6572206e6f7260448201526808185c1c1c9bdd995960ba1b60648201526084016101f4565b6103ad85858585856108af565b335b90565b815183511461062c5760405162461bcd60e51b815260206004820152602860248201527f455243313135353a2069647320616e6420616d6f756e7473206c656e677468206044820152670dad2e6dac2e8c6d60c31b60648201526084016101f4565b6001600160a01b0384166106525760405162461bcd60e51b81526004016101f4906111ec565b600061065c6105c5565b905060005b845181101561076057600085828151811061068c57634e487b7160e01b600052603260045260246000fd5b6020026020010151905060008583815181106106b857634e487b7160e01b600052603260045260246000fd5b602090810291909101810151600084815280835260408082206001600160a01b038e1683529093529190912054909150818110156107085760405162461bcd60e51b81526004016101f490611231565b6000838152602081815260408083206001600160a01b038e8116855292528083208585039055908b1682528120805484929061074590849061129f565b92505081905550505050806107599061131f565b9050610661565b50846001600160a01b0316866001600160a01b0316826001600160a01b03167f4a39dc06d4c0dbc64b70af90fd698a233a518aa5d07e595d983b8c0526c8f7fb87876040516107b0929190611163565b60405180910390a46107c68187878787876109e0565b505050505050565b816001600160a01b0316836001600160a01b031614156108425760405162461bcd60e51b815260206004820152602960248201527f455243313135353a2073657474696e6720617070726f76616c20737461747573604482015268103337b91039b2b63360b91b60648201526084016101f4565b6001600160a01b03838116600081815260016020908152604080832094871680845294825291829020805460ff191686151590811790915591519182527f17307eab39ab6107e8899845ad3d59bd9653f200f220920489ca2b5937696c31910160405180910390a3505050565b6001600160a01b0384166108d55760405162461bcd60e51b81526004016101f4906111ec565b60006108df6105c5565b90506108f98187876108f088610b4b565b6103ad88610b4b565b6000848152602081815260408083206001600160a01b038a1684529091529020548381101561093a5760405162461bcd60e51b81526004016101f490611231565b6000858152602081815260408083206001600160a01b038b811685529252808320878503905590881682528120805486929061097790849061129f565b909155505060408051868152602081018690526001600160a01b03808916928a821692918616917fc3d58168c5ae7397731d063d5bbf3d657854427343f4c083240f7aacaa2d0f62910160405180910390a46109d7828888888888610ba4565b50505050505050565b6001600160a01b0384163b156107c65760405163bc197c8160e01b81526001600160a01b0385169063bc197c8190610a2490899089908890889088906004016110ad565b602060405180830381600087803b158015610a3e57600080fd5b505af1925050508015610a6e575060408051601f3d908101601f19168201909252610a6b91810190610ff4565b60015b610b1b57610a7a611366565b806308c379a01415610ab45750610a8f61137d565b80610a9a5750610ab6565b8060405162461bcd60e51b81526004016101f49190611191565b505b60405162461bcd60e51b815260206004820152603460248201527f455243313135353a207472616e7366657220746f206e6f6e20455243313135356044820152732932b1b2b4bb32b91034b6b83632b6b2b73a32b960611b60648201526084016101f4565b6001600160e01b0319811663bc197c8160e01b146109d75760405162461bcd60e51b81526004016101f4906111a4565b60408051600180825281830190925260609160009190602080830190803683370190505090508281600081518110610b9357634e487b7160e01b600052603260045260246000fd5b602090810291909101015292915050565b6001600160a01b0384163b156107c65760405163f23a6e6160e01b81526001600160a01b0385169063f23a6e6190610be8908990899088908890889060040161110b565b602060405180830381600087803b158015610c0257600080fd5b505af1925050508015610c32575060408051601f3d908101601f19168201909252610c2f91810190610ff4565b60015b610c3e57610a7a611366565b6001600160e01b0319811663f23a6e6160e01b146109d75760405162461bcd60e51b81526004016101f4906111a4565b80356001600160a01b038116811461027257600080fd5b600082601f830112610c95578081fd5b81356020610ca28261127b565b604051610caf82826112f2565b8381528281019150858301600585901b87018401881015610cce578586fd5b855b85811015610cec57813584529284019290840190600101610cd0565b5090979650505050505050565b600082601f830112610d09578081fd5b813567ffffffffffffffff811115610d2357610d23611350565b604051610d3a601f8301601f1916602001826112f2565b818152846020838601011115610d4e578283fd5b816020850160208301379081016020019190915292915050565b60008060408385031215610d7a578182fd5b610d8383610c6e565b9150610d9160208401610c6e565b90509250929050565b600080600080600060a08688031215610db1578081fd5b610dba86610c6e565b9450610dc860208701610c6e565b9350604086013567ffffffffffffffff80821115610de4578283fd5b610df089838a01610c85565b94506060880135915080821115610e05578283fd5b610e1189838a01610c85565b93506080880135915080821115610e26578283fd5b50610e3388828901610cf9565b9150509295509295909350565b600080600080600060a08688031215610e57578081fd5b610e6086610c6e565b9450610e6e60208701610c6e565b93506040860135925060608601359150608086013567ffffffffffffffff811115610e97578182fd5b610e3388828901610cf9565b60008060408385031215610eb5578182fd5b610ebe83610c6e565b915060208301358015158114610ed2578182fd5b809150509250929050565b60008060408385031215610eef578182fd5b610ef883610c6e565b946020939093013593505050565b60008060408385031215610f18578182fd5b823567ffffffffffffffff80821115610f2f578384fd5b818501915085601f830112610f42578384fd5b81356020610f4f8261127b565b604051610f5c82826112f2565b8381528281019150858301600585901b870184018b1015610f7b578889fd5b8896505b84871015610fa457610f9081610c6e565b835260019690960195918301918301610f7f565b5096505086013592505080821115610fba578283fd5b50610fc785828601610c85565b9150509250929050565b600060208284031215610fe2578081fd5b8135610fed8161140f565b9392505050565b600060208284031215611005578081fd5b8151610fed8161140f565b600060208284031215611021578081fd5b5035919050565b6000815180845260208085019450808401835b838110156110575781518752958201959082019060010161103b565b509495945050505050565b60008151808452815b818110156110875760208185018101518683018201520161106b565b818111156110985782602083870101525b50601f01601f19169290920160200192915050565b6001600160a01b0386811682528516602082015260a0604082018190526000906110d990830186611028565b82810360608401526110eb8186611028565b905082810360808401526110ff8185611062565b98975050505050505050565b6001600160a01b03868116825285166020820152604081018490526060810183905260a06080820181905260009061114590830184611062565b979650505050505050565b600060208252610fed6020830184611028565b6000604082526111766040830185611028565b82810360208401526111888185611028565b95945050505050565b600060208252610fed6020830184611062565b60208082526028908201527f455243313135353a204552433131353552656365697665722072656a656374656040820152676420746f6b656e7360c01b606082015260800190565b60208082526025908201527f455243313135353a207472616e7366657220746f20746865207a65726f206164604082015264647265737360d81b606082015260800190565b6020808252602a908201527f455243313135353a20696e73756666696369656e742062616c616e636520666f60408201526939103a3930b739b332b960b11b606082015260800190565b600067ffffffffffffffff82111561129557611295611350565b5060051b60200190565b600082198211156112b2576112b261133a565b500190565b600181811c908216806112cb57607f821691505b602082108114156112ec57634e487b7160e01b600052602260045260246000fd5b50919050565b601f8201601f1916810167ffffffffffffffff8111828210171561131857611318611350565b6040525050565b60006000198214156113335761133361133a565b5060010190565b634e487b7160e01b600052601160045260246000fd5b634e487b7160e01b600052604160045260246000fd5b600060033d11156105c757600481823e5160e01c90565b600060443d101561138d576105c7565b6040516003193d81016004833e81513d67ffffffffffffffff81602484011181841117156113bf5750505050506105c7565b82850191508151818111156113d9575050505050506105c7565b843d87010160208285010111156113f5575050505050506105c7565b611404602082860101876112f2565b509094505050505090565b6001600160e01b03198116811461142557600080fd5b5056fea2646970667358221220e4757c0bff78b451a7d3544b0f5d9235cbc2a3b2808d132cebd477dd76e2e64664736f6c63430008030033",
  "linkReferences": {},
  "deployedLinkReferences": {}
}